:100000000C942A000C9447000C9447000C94470071
:100010000C9447000C9447000C9447000C94650E18
:100020000C9447000C9447000C9447000C94470034
:100030000C9447000C9447000C9447000C94470024
:100040000C9447000C9447000C9447000C94470014
:100050000C94470011241FBECFE5D8E0DEBFCDBF12
:1000600011E0A0E6B0E0ECE6FFE602C005900D92DC
:10007000AC3BB107D9F717E0ACEBB1E001C01D9282
:10008000A433B107E1F70E94C1210C94B4370C945A
:100090000000EF92FF920F931F937B018C0120E0F1
:1000A00030E040E05FE40E94F50388238CF0C80153
:1000B000B70120E030E040E05FE40E94C1010E940F
:1000C00055049B01AC01205030404040504806C0D0
:1000D000C801B7010E9455049B01AC01B901CA01D6
:1000E0001F910F91FF90EF900895A0E0B0E0EBE733
:1000F000F0E00C94BD34DC012B01FA019C919230AC
:1001000008F439C1EB018881823008F433C194309E
:1001100069F4843009F02FC111969C91119789815F
:10012000981709F428C1A7E9B0E025C1843009F483
:1001300021C18230A9F4923009F01DC19A01AD01AC
:1001400088E0EA010990AE01E90109929E0181501F
:10015000C1F7E201898111969C918923818308C1AD
:10016000923009F407C112962D903C901397EB0141
:100170008A819B811496AD90BD90CD90DC901797AD
:10018000EC80FD800E811F819101281B390BB90184
:1001900037FF04C066277727621B730B6032710537
:1001A0000CF061C0121613066CF537014801062EDB
:1001B00004C096948794779467940A94D2F721E0C8
:1001C00030E040E050E004C0220F331F441F551FB1
:1001D0006A95D2F721503040404050402E213F21B7
:1001E00040235123211531054105510521F021E01E
:1001F00030E040E050E079018A01E628F72808293C
:1002000019293CC0232BD1F1260E371E350146019A
:10021000062E04C096948794779467940A94D2F734
:1002200021E030E040E050E004C0220F331F441FC3
:10023000551F6A95D2F721503040404050402A2146
:100240003B214C215D21211531054105510521F04E
:1002500021E030E040E050E059016A01A628B728CB
:10026000C828D9280BC0821593052CF01C01AA249C
:10027000BB24650103C0EE24FF24870111969C91E5
:10028000D20111968C91981709F445C0992339F041
:10029000A80197012A193B094C095D0906C0A6016E
:1002A00095012E193F09400B510B57FD08C01182D3
:1002B0003382228224833583468357831DC081E0A5
:1002C00081833382228288279927DC01821B930B4A
:1002D000A40BB50B84839583A683B7830DC0220F2F
:1002E000331F441F551F24833583468357838281E0
:1002F000938101979383828324813581468157813D
:10030000DA01C9010197A109B1098F5F9F4FAF4F72
:10031000BF4328F30BC0918333822282EA0CFB1C7B
:100320000C1D1D1DE482F5820683178383E0808304
:10033000248135814681578157FF1AC0C901AA27F8
:1003400097FDA095BA2F81709070A070B0705695EF
:10035000479537952795822B932BA42BB52B848318
:100360009583A683B7838281938101969383828349
:10037000DF0101C0D201CD01CDB7DEB7E2E10C94BF
:10038000D934A0E2B0E0E7ECF1E00C94C934698321
:100390007A838B839C832D833E834F835887E9E048
:1003A000EE2EF12CEC0EFD1ECE010196B7010E943F
:1003B00046068E010F5E1F4FCE010596B8010E94C2
:1003C00046068A8991E089278A8BC701B801AE0168
:1003D000475E5F4F0E9475000E947105A096E6E09F
:1003E0000C94E534A0E2B0E0E8EFF1E00C94C934FD
:1003F00069837A838B839C832D833E834F835887C5
:10040000F9E0EF2EF12CEC0EFD1ECE010196B701A6
:100410000E9446068E010F5E1F4FCE010596B80161
:100420000E944606C701B801AE01475E5F4F0E94B9
:1004300075000E947105A096E6E00C94E534A0E2F8
:10044000B0E0E5E2F2E00C94BD3469837A838B83FB
:100450009C832D833E834F835887CE010196BE0136
:10046000675F7F4F0E944606CE010596BE016F5E14
:100470007F4F0E9446069985923088F089898230A4
:10048000C8F0943019F4823051F404C0843029F457
:10049000923081F487E990E0C6C0923049F420E0C0
:1004A0009A858A89981321E02A87CE010996BBC0D4
:1004B000823049F420E09A858A89981321E02A8BBA
:1004C000CE014196B0C02D843E844F8458886D88FB
:1004D0007E888F88988CEE24FF248701AA24BB2471
:1004E000650140E050E060E070E0E0E0F0E0C10174
:1004F00081709070892BE9F0E60CF71C081D191D1E
:100500009A01AB012A0D3B1D4C1D5D1D80E090E062
:10051000A0E0B0E0E614F7040805190520F481E036
:1005200090E0A0E0B0E0BA01A901480F591F6A1F8E
:100530007B1FAA0CBB1CCC1CDD1C97FE08C081E0F5
:1005400090E0A0E0B0E0A82AB92ACA2ADB2A3196B6
:10055000E032F10549F0660C771C881C991C569412
:10056000479437942794C3CFFA85EA892B893C892D
:100570008B859C85280F391F2E5F3F4F17C0CA01FE
:1005800081709070892B61F016950795F794E79428
:1005900080E090E0A0E0B0E8E82AF92A0A2B1B2BC3
:1005A00076956795579547952F5F3F4F77FDE7CF36
:1005B0000CC0440F551F661F771F17FD4160EE0CDE
:1005C000FF1C001F111F21503040403090E05907A0
:1005D00090E0690790E4790760F32B8F3C8FDB0193
:1005E000CA018F779070A070B07080349105A1051A
:1005F000B10561F447FD0AC0E114F10401051105DC
:1006000029F0405C5F4F6F4F7F4F40781A8EFE1786
:1006100011F081E08A8F4D8F5E8F6F8F78A383E01A
:10062000898FCE0149960E947105A096E2E10C9453
:10063000D934A8E1B0E0EFE1F3E00C94C53469836C
:100640007A838B839C832D833E834F835887B9E0C5
:10065000EB2EF12CEC0EFD1ECE010196B7010E948F
:1006600046068E010F5E1F4FCE010596B8010E940F
:1006700046062985223008F47EC03989323010F4CC
:10068000B8017CC08A859A8989278A87243011F02D
:10069000223031F4231709F06EC067E970E06EC0B4
:1006A000343039F41D861E861F86188A1C861B86E8
:1006B00004C0323021F484E08987B7015FC02B8504
:1006C0003C858B899C89281B390B3C872B87ED84C3
:1006D000FE840F851889AD88BE88CF88D88CEA142F
:1006E000FB040C051D0540F4EE0CFF1C001F111F40
:1006F000215030403C872B8720E030E040E050E044
:1007000080E090E0A0E0B0E460E070E0EA14FB0478
:100710000C051D0540F0282B392B4A2B5B2BEA18C2
:10072000FB080C091D09B695A79597958795EE0CC2
:10073000FF1C001F111F6F5F7F4F6F31710531F775
:10074000DA01C9018F779070A070B0708034910584
:10075000A105B10561F427FD0AC0E114F10401050A
:10076000110529F0205C3F4F4F4F5F4F20782D87B8
:100770003E874F87588BBE01675F7F4FCB010E943A
:1007800071056896EAE00C94E134A8E1B0E0EBEC86
:10079000F3E00C94C93469837A838B839C832D8323
:1007A0003E834F83588789E0E82EF12CEC0EFD1E26
:1007B000CE010196B7010E9446068E010F5E1F4FC3
:1007C000CE010596B8010E9446068985823040F028
:1007D0008989823028F0C701B8010E94BE0601C095
:1007E0008FEF6896E6E00C94E534A8E1B0E0EBEF1B
:1007F000F3E00C94C93469837A838B839C832D83C3
:100800003E834F83588789E0E82EF12CEC0EFD1EC5
:10081000CE010196B7010E9446068E010F5E1F4F62
:10082000CE010596B8010E9446068985823040F0C7
:100830008989823028F0C701B8010E94BE0601C034
:100840008FEF6896E6E00C94E534A8E1B0E0EBE2C7
:10085000F4E00C94C93469837A838B839C832D8361
:100860003E834F83588789E0E82EF12CEC0EFD1E65
:10087000CE010196B7010E9446068E010F5E1F4F02
:10088000CE010596B8010E9446068985823040F067
:100890008989823028F0C701B8010E94BE0601C0D4
:1008A00081E06896E6E00C94E534ACE0B0E0EBE57E
:1008B000F4E00C94CD3469837A838B839C83CE01DE
:1008C0000196BE016B5F7F4F0E9446068D8182308C
:1008D00061F1823050F1843021F48E81882351F10E
:1008E0002EC02F81388537FD20C06E812F31310514
:1008F0001CF06623F9F023C08EE190E0821B930B7D
:1009000029853A854B855C8504C056954795379572
:1009100027958A95D2F76623B1F05095409530958A
:1009200021953F4F4F4F5F4F0EC020E030E040E039
:1009300050E009C02FEF3FEF4FEF5FE704C020E02A
:1009400030E040E050E8B901CA012C96E2E00C9496
:10095000E934A8E0B0E0EFEAF4E00C94C5347B01A0
:100960008C01611571058105910519F482E0898377
:1009700060C083E089838EE1C82ED12CDC82CB82DB
:10098000ED82FE820F831887C801B7010E942205FD
:10099000FC013197F7FF3BC0222733272E1B3F0B6B
:1009A00057016801022E04C0D694C794B794A79447
:1009B0000A94D2F740E050E060E070E081E090E01F
:1009C000A0E0B0E004C0880F991FAA1FBB1F2A95A2
:1009D000D2F70197A109B1098E219F21A023B1234C
:1009E0000097A105B10521F041E050E060E070E022
:1009F0004A295B296C297D294D835E836F83788723
:100A00008EE190E08E1B9F0B9C838B8312C03097EE
:100A100081F00E2E04C0EE0CFF1C001F111F0A9463
:100A2000D2F7ED82FE820F831887CE1ADF0ADC82AE
:100A3000CB821A82CE0101960E9471052896EAE0C7
:100A40000C94E134EF92FF920F931F937B018C0182
:100A500080E0E81680E0F80681E0080780E01807EB
:100A600088F48FEFE816F1040105110531F028F044
:100A700088E090E0A0E0B0E017C080E090E0A0E067
:100A8000B0E012C080E0E81680E0F80680E00807D9
:100A900081E0180728F088E190E0A0E0B0E004C011
:100AA00080E190E0A0E0B0E020E230E040E050E003
:100AB000281B390B4A0B5B0B04C016950795F7945E
:100AC000E7948A95D2F7F701E156FF4F8081281B02
:100AD000310941095109C9011F910F91FF90EF9010
:100AE0000895DF92EF92FF920F931F93FC01E48031
:100AF000F58006811781D1808081823048F480E0C2
:100B000090E0A0E1B0E0E82AF92A0A2B1B2BA5C04F
:100B1000843009F49FC0823021F4EE24FF24870141
:100B200005C0E114F1040105110519F4E0E0F0E05D
:100B300096C0628173819FEF623879070CF05BC0C9
:100B400022E83FEF261B370B2A3131052CF020E03D
:100B500030E040E050E02AC0B801A701022E04C0F6
:100B600076956795579547950A94D2F781E090E07E
:100B7000A0E0B0E004C0880F991FAA1FBB1F2A95F0
:100B8000D2F70197A109B1098E219F21A023B1239A
:100B90000097A105B10521F081E090E0A0E0B0E070
:100BA0009A01AB01282B392B4A2B5B2BDA01C901A7
:100BB0008F779070A070B07080349105A105B10559
:100BC00039F427FF09C0205C3F4F4F4F5F4F04C0EF
:100BD000215C3F4F4F4F5F4FE0E0F0E02030A0E05E
:100BE0003A07A0E04A07A0E45A0710F0E1E0F0E07D
:100BF00079018A0127C06038710564F5FB01E1586D
:100C0000FF4FD801C7018F779070A070B07080340B
:100C10009105A105B10539F4E7FE0DC080E490E02F
:100C2000A0E0B0E004C08FE390E0A0E0B0E0E80E08
:100C3000F91E0A1F1B1F17FF05C016950795F7948D
:100C4000E794319687E016950795F794E7948A958F
:100C5000D1F705C0EE24FF248701EFEFF0E06E2FFF
:100C6000679566276795902F9F77D794DD24D79453
:100C70008E2F8695492F462B582F5D29B701CA0123
:100C80001F910F91FF90EF90DF900895FC01DB0121
:100C9000408151812281622F6F7770E0221F2227CD
:100CA000221F9381892F880F822B282F30E0991FD4
:100CB0009927991F11969C93119721153105A9F534
:100CC000411551056105710511F482E037C082E8D4
:100CD0009FEF13969C938E9312979A01AB0167E056
:100CE000220F331F441F551F6A95D1F783E08C9361
:100CF0000DC0220F331F441F551F12968D919C91DA
:100D00001397019713969C938E931297203080E04F
:100D1000380780E0480780E4580758F314962D936D
:100D20003D934D935C93179708952F3F310579F4C8
:100D3000411551056105710519F484E08C930895FE
:100D400064FF03C081E08C9312C01C9210C02F5727
:100D5000304013963C932E93129783E08C9387E058
:100D6000440F551F661F771F8A95D1F7706414963C
:100D70004D935D936D937C93179708951F93DC01BA
:100D8000FB019C91923008F447C08081823008F4C6
:100D900043C0943051F411961C91843099F58181AF
:100DA000682F70E0611B71093FC0843021F09230E0
:100DB00031F48230B9F18181882389F12DC01196F7
:100DC0001C9111978230F1F081811817D9F4129695
:100DD0002D913C911397828193818217930794F010
:100DE00028173907BCF014968D919D910D90BC91F8
:100DF000A02D2481358146815781281739074A075C
:100E00005B0718F4112341F00AC082179307A40767
:100E1000B50740F4112319F061E070E005C06FEFF1
:100E20007FEF02C060E070E0CB011F910895DF9377
:100E3000CF93CDB7DEB727970FB6F894DEBF0FBEBE
:100E4000CDBF9D838C836E834F838AE190E00E94A7
:100E5000EF099A83898389819A81009709F46FC089
:100E60008091BC019091BD01009741F489819A81E4
:100E70009093BD018093BC010E947E098E818230D7
:100E800010F081E08E83E981FA81118E108EE98164
:100E9000FA818E81868BE981FA818F81878BE98146
:100EA000FA818C819D819183808389819A810296C8
:100EB0000E94850A89819A810C960E94850AE9819F
:100EC000FA8189819A8191878087E981FA81898174
:100ED0009A81938B828B8E81282F30E085E090E081
:100EE000821B930BE981FA8195878487E981FA81D6
:100EF00096898091BE01891728F4E981FA81868953
:100F00008093BE01E981FA818689282F30E0C901EA
:100F1000880F991F880F991F880F991F820F931FA1
:100F2000AC014B535E4F89819A819C012E5F3F4FEC
:100F3000CA01B9010E94950A81E08B8302C08FEF3C
:100F40008B838B8127960FB6F894DEBF0FBECDBF83
:100F5000CF91DF910895DF93CF9300D000D000D0E0
:100F6000CDB7DEB79C838B837E836D832091BF01D9
:100F70003091C0018B819C81820F931F9A8389835A
:100F80008091BC019091BD0102960E944D0BE091B1
:100F9000BC01F091BD0189819A8193838283209164
:100FA000BF013091C00189819A818217930770F443
:100FB0008091EB019091EC012091BC013091BD0139
:100FC0002E5F3F4FB9010E94E10A0DC08091E901F7
:100FD0009091EA012091BC013091BD012E5F3F4FFD
:100FE000B9010E94E10A8D819E81009761F0809194
:100FF000BC019091BD019C01245F3F4F8D819E817A
:10100000B9010E94E10A26960FB6F894DEBF0FBE22
:10101000CDBFCF91DF910895DF93CF9300D0CDB7AF
:10102000DEB73AC0F894E091F201F091F3018681C5
:1010300097819A83898389819A810C960E944D0BAE
:10104000789489819A8102960E944D0BE981FA81F8
:1010500096898091BE01891728F4E981FA818689F1
:101060008093BE01E981FA818689282F30E0C90189
:10107000880F991F880F991F880F991F820F931F40
:10108000AC014B535E4F89819A819C012E5F3F4F8B
:10109000CA01B9010E94950A8091ED01882309F0E7
:1010A000C1CF0F900F90CF91DF910895DF93CF9331
:1010B00000D000D0CDB7DEB70E94C6172091C10185
:1010C0003091C201821B930B9093C4018093C301A2
:1010D00085C08091BF019091C00101969093C0019D
:1010E0008093BF018091C3019091C40101979093B7
:1010F000C4018093C3018091BF019091C00100970A
:1011000009F064C08091E9019091EA019A83898392
:101110008091EB019091EC019093EA018093E901B9
:1011200089819A819093EC018093EB014FC0E0910B
:10113000E901F091EA010580F681E02D8681978131
:101140009C838B83EB81FC81228133818091BF0161
:101150009091C0018217930708F440C0F8948B81E6
:101160009C8102960E944D0BEB81FC8184899589BC
:10117000009729F08B819C810C960E944D0B7894EE
:10118000EB81FC8196898091BE01891728F4EB815F
:10119000FC8186898093BE01EB81FC818689282FA2
:1011A00030E0C901880F991F880F991F880F991F78
:1011B000820F931FAC014B535E4F8B819C819C012E
:1011C0002E5F3F4FCA01B9010E94950AE091E901E3
:1011D000F091EA018081882309F0A9CF8091C301B1
:1011E0009091C401009709F074CF8091BF01909154
:1011F000C0019093C2018093C1010F900F900F9096
:101200000F90CF91DF910895DF93CF9300D0CDB7AA
:10121000DEB70E940C080E9456080AC08091BE01E9
:10122000882309F466C08091BE0181508093BE017D
:101230008091BE01282F30E0C901880F991F880FC7
:10124000991F880F991F820F931FFC01EB53FE4FCC
:101250008081882319F38091BE01282F30E0C901D5
:10126000880F991F880F991F880F991F820F931F4E
:101270008B539E4F9A838983E981FA810180F281A1
:10128000E02D82819381E981FA8192838183E981D2
:10129000FA812181328189819A8103962817390741
:1012A00059F4E981FA810180F281E02D82819381F4
:1012B000E981FA8192838183E981FA810180F28157
:1012C000E02D868197819093BD018093BC01E091D0
:1012D000BC01F091BD01408151818091BC01909190
:1012E000BD01E091BC01F091BD012789622FFA0197
:1012F00009950F900F90CF91DF910895DF93CF93D1
:101300000F92CDB7DEB7198213C08981282F30E044
:10131000C901880F991F880F991F880F991F820F85
:10132000931F8B539E4F0E945B0A89818F5F898335
:101330008981823050F387ED91E00E945B0A80EE54
:1013400091E00E945B0A8DEE91E00E945B0A87EDBE
:1013500091E09093EA018093E90180EE91E090930F
:10136000EC018093EB010F90CF91DF910895DF9313
:10137000CF9300D000D00F92CDB7DEB79D838C8382
:10138000EC81FD810580F681E02D868197819B832C
:101390008A838A819B810C960E944D0B8A819B8156
:1013A0009C01245F3F4F8DEE91E0B9010E94950AA8
:1013B000EA81FB819689E091BC01F091BD018689AB
:1013C000981718F081E0898301C0198289810F90F4
:1013D0000F900F900F900F90CF91DF910895DF93B2
:1013E000CF9300D000D0CDB7DEB79C838B831A8219
:1013F00019820E9432178091F6019091F7012B819A
:101400003C81820F931F24E0803B920718F52091C6
:10141000F6013091F7018B819C81280F391F809153
:10142000F6019091F70182179307A0F48091F601DD
:101430009091F70188509E4F9A8389832091F601FD
:101440003091F7018B819C81820F931F9093F7015C
:101450008093F6010E943E1789819A810F900F9028
:101460000F900F90CF91DF910895DF93CF9300D02D
:10147000CDB7DEB79A8389830F900F90CF91DF911C
:101480000895DF93CF93CDB7DEB71092F701109296
:10149000F601CF91DF910895DF93CF93CDB7DEB7FB
:1014A0002091F6013091F70180EB94E0821B930BC1
:1014B000CF91DF910895DF93CF9300D0CDB7DEB702
:1014C0009A83898389819A810396E981FA8192833B
:1014D0008183E981FA818FEF9FEF948383838981F0
:1014E0009A810396E981FA819683858389819A811D
:1014F0000396E981FA8190878783E981FA811082D6
:101500000F900F90CF91DF910895DF93CF9300D08C
:10151000CDB7DEB79A838983E981FA811186108677
:101520000F900F90CF91DF910895DF93CF9300D06C
:1015300000D000D0CDB7DEB79C838B837E836D83D4
:10154000EB81FC81818192819A838983E981FA818F
:1015500082819381ED81FE8193838283EB81FC8183
:1015600081819281ED81FE8195838483E981FA8175
:101570000280F381E02D8D819E81958384838D810E
:101580009E81E981FA81938382838D819E81EB81A3
:10159000FC8192838183ED81FE818B819C81918787
:1015A0008087EB81FC8180818F5FEB81FC81808370
:1015B00026960FB6F894DEBF0FBECDBFCF91DF9158
:1015C0000895DF93CF93CDB7DEB728970FB6F89481
:1015D000DEBF0FBECDBF9E838D8378876F83EF8183
:1015E000F885808191819A83898389819A812FEFFF
:1015F0008F3F920739F4ED81FE81878190859C832E
:101600008B8318C08D819E8103969C838B8306C03B
:10161000EB81FC81828193819C838B83EB81FC81B4
:101620000280F381E02D2081318189819A818217A6
:10163000930770F7EB81FC8182819381EF81F885BC
:1016400093838283EF81F8850280F381E02D8F817F
:10165000988595838483EF81F8858B819C81958320
:1016600084838F819885EB81FC8193838283EF81D2
:10167000F8858D819E8191878087ED81FE818081B3
:101680008F5FED81FE81808328960FB6F894DEBFD0
:101690000FBECDBFCF91DF910895DF93CF9300D0E0
:1016A00000D0CDB7DEB79C838B83EB81FC81A28118
:1016B000B381EB81FC818481958115969C938E93F7
:1016C0001497EB81FC81A481B581EB81FC8182813F
:1016D000938113969C938E931297EB81FC81808566
:1016E00091859A838983E981FA81218132818B8175
:1016F0009C812817390741F4EB81FC818481958115
:10170000E981FA8192838183EB81FC8111861086C5
:10171000E981FA8180818150E981FA8180830F908B
:101720000F900F900F90CF91DF910895DF93CF939B
:10173000CDB7DEB728970FB6F894DEBF0FBECDBF8A
:101740009C838B837E836D8358874F83EB81FC81E1
:1017500081E180838B819C8101979C838B83EB81CA
:10176000FC8182E280838B819C8101979C838B83A7
:10177000EB81FC8183E380838B819C8101979C8337
:101780008B838D819E819A8389838981EB81FC8102
:1017900080838B819C8101979C838B8389819A8133
:1017A000892F99279A8389838981EB81FC818083A2
:1017B0008B819C8101979C838B83EB81FC811082C0
:1017C0008B819C8101979C838B83EB81FC8180E8DA
:1017D00080838B819C8101979C838B83EB81FC812F
:1017E00010828B819C8101979C838B83EB81FC8190
:1017F00082E080838B819C8101979C838B83EB812A
:10180000FC8183E080838B819C8101979C838B8307
:10181000EB81FC8184E080838B819C8101979C8398
:101820008B83EB81FC8185E080838B819C81019798
:101830009C838B83EB81FC8186E080838B819C8100
:1018400001979C838B83EB81FC8187E080838B8174
:101850009C8101979C838B83EB81FC8188E0808352
:101860008B819C8101979C838B83EB81FC8189E038
:1018700080838B819C8101979C838B83EB81FC818E
:1018800080E180838B819C8101979C838B83EB819A
:10189000FC8181E180838B819C8101979C838B8378
:1018A000EB81FC8182E180838B819C8101979C8309
:1018B0008B83EB81FC8183E180838B819C81019709
:1018C0009C838B83EB81FC8184E180838B819C8171
:1018D00001979C838B83EB81FC8185E180838B81E5
:1018E0009C8101979C838B83EB81FC8186E18083C3
:1018F0008B819C8101979C838B83EB81FC8187E1A9
:1019000080838B819C8101979C838B83EB81FC81FD
:1019100088E180838B819C8101979C838B83EB8101
:10192000FC8189E180838B819C8101979C838B83DF
:10193000EB81FC8180E280838B819C8101979C8379
:101940008B83EB81FC8181E280838B819C81019779
:101950009C838B83EB81FC8182E280838B819C81E1
:1019600001979C838B83EB81FC8183E280838B8155
:101970009C8101979C838B838F8198859A8389832F
:101980008981EB81FC8180838B819C8101979C8381
:101990008B8389819A81892F99279A838983898169
:1019A000EB81FC8180838B819C8101979C838B835D
:1019B000EB81FC8186E280838B819C8101979C83F3
:1019C0008B83EB81FC8187E280838B819C810197F3
:1019D0009C838B83EB81FC8188E280838B819C815B
:1019E00001979C838B83EB81FC8189E280838B81CF
:1019F0009C8101979C838B83EB81FC8180E38083B6
:101A00008B819C8101979C838B83EB81FC8181E39B
:101A100080838B819C8101979C838B838B819C81AC
:101A200028960FB6F894DEBF0FBECDBFCF91DF91E1
:101A30000895DF93CF93CDB7DEB70E94090EA09132
:101A4000A806B091A906CD91CDBFDD91DEBFFF9173
:101A5000EF91DF91CF91BF91AF919F918F917F9146
:101A60006F915F914F913F912F911F910F91FF9037
:101A7000EF90DF90CF90BF90AF909F908F907F902E
:101A80006F905F904F903F902F901F900F900FBEE0
:101A90000F90089581E0CF91DF910895DF93CF9368
:101AA000CDB7DEB7CF91DF9108950F920FB6F894BE
:101AB0000F921F9211242F923F924F925F926F923A
:101AC0007F928F929F92AF92BF92CF92DF92EF92CE
:101AD000FF920F931F932F933F934F935F936F93B7
:101AE0007F938F939F93AF93BF93CF93DF93EF93A6
:101AF000FF93A091A806B091A9060DB60D920EB65F
:101B00000D920E94D018A091A806B091A906CD917F
:101B1000CDBFDD91DEBFFF91EF91DF91CF91BF91FE
:101B2000AF919F918F917F916F915F914F913F9175
:101B30002F911F910F91FF90EF90DF90CF90BF906A
:101B4000AF909F908F907F906F905F904F903F905D
:101B50002F901F900F900FBE0F9008950F920FB609
:101B6000F8940F921F9211242F923F924F925F92FE
:101B70006F927F928F929F92AF92BF92CF92DF929D
:101B8000EF92FF920F931F932F933F934F935F9387
:101B90006F937F938F939F93AF93BF93CF93DF9375
:101BA000EF93FF93A091A806B091A9060DB60D92F0
:101BB0000EB60D920E94FB170E94D018A091A806A5
:101BC000B091A906CD91CDBFDD91DEBFFF91EF9120
:101BD000DF91CF91BF91AF919F918F917F916F9145
:101BE0005F914F913F912F911F910F91FF90EF9037
:101BF000DF90CF90BF90AF909F908F907F906F902D
:101C00005F904F903F902F901F900F900FBE0F90BE
:101C10000895DF93CF9300D000D000D0CDB7DEB7CA
:101C200080E89EE3A0E0B0E08B839C83AD83BE831D
:101C30008B819C81AD81BE81689415F8B695A7957E
:101C4000979587951694D1F78B839C83AD83BE833C
:101C50008B819C81AD81BE810197A109B1098B83E4
:101C60009C83AD83BE838B8189838B819C81AD8175
:101C7000BE81892F9A2FAB2FBB278B839C83AD838B
:101C8000BE838B818A83EBE4F0E08A818083EAE47F
:101C9000F0E0898180838BE08983EEE4F0E0898144
:101CA0008083E9E5F0E0808189838981806189838F
:101CB000E9E5F0E08981808326960FB6F894DEBFCF
:101CC0000FBECDBFCF91DF9108951F920F920FB637
:101CD0000F9211242F933F934F935F936F937F93B2
:101CE0008F939F93AF93BF93EF93FF93DF93CF9324
:101CF000CDB7DEB70E94FB17CF91DF91FF91EF9137
:101D0000BF91AF919F918F917F916F915F914F9113
:101D10003F912F910F900FBE0F901F901895DF935A
:101D2000CF93CDB7DEB728970FB6F894DEBF0FBEBE
:101D3000CDBF8F8368871A8219828F81882309F427
:101D40008CC08FE190E00E94EF099E838D838D818E
:101D50009E81009709F481C08F81282F30E088850B
:101D6000882F90E0AC01249FC001259F900D349FE7
:101D7000900D112401969C838B838B819C810E9402
:101D8000EF09ED81FE8191838083ED81FE81808169
:101D90009181009709F45DC0ED81FE814081518100
:101DA0008F81282F30E08885882F90E0BC01269F06
:101DB000C001279F900D369F900D1124840F951F11
:101DC000ED81FE8193838283ED81FE81128EED8110
:101DD000FE8180819181ED81FE8195838483ED81F7
:101DE000FE81408151818F81882F90E09C0121509C
:101DF00030408885882F90E0BC01269FC001279F36
:101E0000900D369F900D1124840F951FED81FE815A
:101E100097838683ED81FE818F81838FED81FE81A3
:101E20008885848FED81FE818FEF858FED81FE8126
:101E30008FEF868F8D819E8108960E945B0A8D812F
:101E40009E8141960E945B0A8D819E819A8389833F
:101E500004C08D819E810E94350A89819A812896CD
:101E60000FB6F894DEBF0FBECDBFCF91DF910895BE
:101E7000DF93CF93CDB7DEB72C970FB6F894DEBFC4
:101E80000FBECDBF9E838D8378876F835A87498726
:101E90002B8719820FB6F8940F92ED81FE81928DF7
:101EA000ED81FE81838D9817D8F48D819E812F81DD
:101EB0003885B9014B850E947311ED81FE818189BE
:101EC000882349F08D819E8141960E94B519813009
:101ED00011F40E94550D0F900FBE81E08C875CC0FD
:101EE00089859A85009721F40F900FBE1C8654C0F7
:101EF0008981882331F4CE0102960E941D1A81E067
:101F000089830F900FBE0E9432170FB6F8940F927C
:101F1000ED81FE81858D8F3F19F4ED81FE81158E57
:101F2000ED81FE81868D8F3F19F4ED81FE81168E45
:101F30000F900FBECE0102969E01275F3F4FB90161
:101F40000E94361A882309F58D819E810E94D7123E
:101F50008823A1F08D819E81089629853A85B90153
:101F60000E9436198D819E810E9450120E943E1758
:101F7000882309F08FCF0E94550D8CCF8D819E81D3
:101F80000E9450120E943E1785CF8D819E810E9433
:101F900050120E943E171C868C852C960FB6F89422
:101FA000DEBF0FBECDBFCF91DF910895DF93CF93FA
:101FB000CDB7DEB729970FB6F894DEBF0FBECDBF01
:101FC0009C838B837E836D8358874F8329871982F7
:101FD000EB81FC81928DEB81FC81838D981740F51C
:101FE0008B819C812D813E81B90149850E947311AD
:101FF000EB81FC81868D8F3F89F4EB81FC818189A7
:10200000882399F08B819C8141960E94B519882381
:1020100061F0EF81F88581E0808307C0EB81FC816E
:10202000868D8F5FEB81FC81868F81E08A8301C082
:102030001A828A8129960FB6F894DEBF0FBECDBFF3
:10204000CF91DF910895DF93CF93CDB7DEB72E9771
:102050000FB6F894DEBF0FBECDBF98878F837A8707
:1020600069875C874B872D871B820FB6F8940F9288
:10207000EF81F885828D882309F43FC0EF81F885D0
:10208000868197819A8389838F81988529853A856E
:10209000B9010E9408128D858823B1F4EF81F8857B
:1020A000828D8150EF81F885828FEF81F885808560
:1020B0008823F1F08F81988508960E94B5198130A8
:1020C000B9F40E94550D14C0EF81F88589819A8179
:1020D00097838683EF81F8858189882349F08F81F2
:1020E000988541960E94B519882311F00E94550DDC
:1020F0000F900FBE81E08E875CC08B859C8500971A
:1021000021F40F900FBE1E8654C08B81882331F4BA
:10211000CE0104960E941D1A81E08B830F900FBEA2
:102120000E9432170FB6F8940F92EF81F885858DD3
:102130008F3F19F4EF81F885158EEF81F885868D34
:102140008F3F19F4EF81F885168E0F900FBECE01E8
:1021500004969E01255F3F4FB9010E94361A8823DD
:1021600009F58F8198850E94A4128823A1F08F81A0
:10217000988541962B853C85B9010E9436198F813F
:1021800098850E9450120E943E17882309F06DCF57
:102190000E94550D6ACF8F8198850E9450120E942F
:1021A0003E1763CF8F8198850E9450120E943E1780
:1021B0001E868E852E960FB6F894DEBF0FBECDBF5D
:1021C000CF91DF910895DF93CF93CDB7DEB72897F6
:1021D0000FB6F894DEBF0FBECDBF9C838B837E838A
:1021E0006D8358874F831982EB81FC81828D882310
:1021F00071F18B819C812D813E81B9010E94081271
:10220000EB81FC81828D8150EB81FC81828FEB819F
:10221000FC81858D8F3F89F4EB81FC81808588234B
:1022200099F08B819C8108960E94B519882361F0F2
:10223000EF81F88581E0808307C0EB81FC81858D8B
:102240008F5FEB81FC81858F81E08A8301C01A82D8
:102250008A8128960FB6F894DEBF0FBECDBFCF910E
:10226000DF910895DF93CF9300D00F92CDB7DEB703
:102270009B838A830FB6F8940F92EA81FB81828D4B
:1022800089830F900FBE89810F900F900F90CF918F
:10229000DF910895DF93CF9300D00F92CDB7DEB7D3
:1022A0009B838A83EA81FB81828D898389810F9058
:1022B0000F900F90CF91DF910895DF93CF9300D0CF
:1022C000CDB7DEB79A838983E981FA8180819181D4
:1022D0000E94350A89819A810E94350A0F900F90D9
:1022E000CF91DF910895DF93CF9300D000D00F926C
:1022F000CDB7DEB79A8389837C836B834D83E98175
:10230000FA81848D882309F474C08D81882399F51E
:10231000E981FA8164817581E981FA81848D482F90
:1023200050E02B813C81CB01B9010E94F434E9815A
:10233000FA8124813581E981FA81848D882F90E0AA
:10234000820F931FE981FA8195838483E981FA8161
:1023500024813581E981FA818281938128173907A7
:1023600008F447C0E981FA8180819181E981FA818D
:10237000958384833EC0E981FA8166817781E98112
:10238000FA81848D482F50E02B813C81CB01B9012B
:102390000E94F434E981FA8126813781E981FA814A
:1023A000848D882F90E0909581959F4F820F931F89
:1023B000E981FA8197838683E981FA8126813781D1
:1023C000E981FA81808191812817390790F4E981A8
:1023D000FA8122813381E981FA81848D882F90E00E
:1023E000909581959F4F820F931FE981FA81978382
:1023F0008683E981FA81828D8F5FE981FA81828FFC
:102400000F900F900F900F900F90CF91DF91089544
:10241000DF93CF9300D000D0CDB7DEB79A83898306
:102420007C836B83E981FA8180819181009789F1B6
:10243000E981FA8126813781E981FA81848D882FAB
:1024400090E0820F931FE981FA8197838683E98167
:10245000FA8126813781E981FA8182819381281767
:10246000390740F0E981FA8180819181E981FA811F
:1024700097838683E981FA8146815781E981FA81D0
:10248000848D282F30E08B819C81BA01A9010E94A4
:10249000F4340F900F900F900F90CF91DF9108952B
:1024A000DF93CF9300D0CDB7DEB79A8389830FB681
:1024B000F8940F9215C0E981FA8181898823A9F0E7
:1024C00089819A8141960E94B519882311F00E9452
:1024D0009D1AE981FA81868D8150E981FA81868F82
:1024E000E981FA81868D181634F3E981FA818FEF3C
:1024F000868F0F900FBE0FB6F8940F9215C0E9812A
:10250000FA8180858823A9F089819A8108960E94A2
:10251000B519882311F00E949D1AE981FA81858DF1
:102520008150E981FA81858FE981FA81858D1816BC
:1025300034F3E981FA818FEF858F0F900FBE0F90F2
:102540000F90CF91DF910895DF93CF9300D00F923A
:10255000CDB7DEB79B838A830FB6F8940F92EA81DA
:10256000FB81828D1982882311F481E089830F9089
:102570000FBE89810F900F900F90CF91DF9108953A
:10258000DF93CF9300D00F92CDB7DEB79B838A83C2
:10259000EA81FB81828D1982882311F481E089838D
:1025A00089810F900F900F90CF91DF910895DF9365
:1025B000CF9300D00F92CDB7DEB79B838A830FB63F
:1025C000F8940F92EA81FB81928DEA81FB81838DE1
:1025D0001982981711F481E089830F900FBE8981C9
:1025E0000F900F900F90CF91DF910895DF93CF93CD
:1025F00000D00F92CDB7DEB79B838A83EA81FB813F
:10260000928DEA81FB81838D1982981711F481E004
:10261000898389810F900F900F90CF91DF9108955A
:10262000DF93CF9300D000D0CDB7DEB79A838983F4
:102630007C836B830FB6F8940F92E981FA81858DC4
:102640008F3F19F4E981FA81158EE981FA81868D2F
:102650008F3F19F4E981FA81168E0F900FBEE98140
:10266000FA81828D882341F489819A8141962B8158
:102670003C81B9010E947F1989819A810E94501280
:102680000F900F900F900F90CF91DF910895AF9220
:10269000BF92CF92DF92EF92FF920F931F93DF933F
:1026A000CF93CDB7DEB764970FB6F894DEBF0FBEF9
:1026B000CDBF9F838E83798768875B874A873D87F5
:1026C0002C870E87F88AEF86DA8AC98ABC8AAB8A99
:1026D0008A859B8529893A89B9010E94971B9C8329
:1026E0008B838B819C81009709F499C0EB81FC81DD
:1026F0002789308D8A859B850197820F931F9A8346
:1027000089838B819C8128853985EB89FC89AA8501
:10271000BB85B9014E859F018D010E94B31A898145
:102720009A812E813F814C855D85B9010E94960B6F
:10273000EB81FC81918380838F859889009731F0AC
:10274000EF85F8898B819C81918380830FB6F89403
:102750000F928091AA068F5F8093AA068091A806A7
:102760009091A906009769F48B819C819093A906AA
:102770008093A8068091AA068130A9F40E940A1BC2
:1027800012C08091AF06882371F4E091A806F09101
:10279000A90696898E85891730F08B819C8190934C
:1027A000A9068093A806EB81FC8196898091AD06ED
:1027B000891728F4EB81FC8186898093AD0680918E
:1027C000B4068F5F8093B406EB81FC81968980917B
:1027D000AE06891728F4EB81FC8186898093AE06CA
:1027E000EB81FC818689282F30E0C901880F991F71
:1027F000880F991F880F991F820F931FAC014B54AC
:10280000594F8B819C819C012E5F3F4FCA01B901BA
:102810000E94950A81E08D830F900FBE02C08FEF5A
:102820008D838D81813071F48091AF06882351F0C2
:10283000E091A806F091A90696898E85981710F464
:102840000E94550D8D8164960FB6F894DEBF0FBEC1
:10285000CDBFCF91DF911F910F91FF90EF90DF904F
:10286000CF90BF90AF900895DF93CF93CDB7DEB7F1
:1028700028970FB6F894DEBF0FBECDBF9E838D8321
:1028800078876F8319820E943217ED81FE81208143
:1028900031818F819885820F931F9C838B83ED817B
:1028A000FE81208131818091AB069091AC06821728
:1028B0009307A8F4ED81FE81208131818B819C8179
:1028C0008217930700F52091AB063091AC068B81FF
:1028D0009C8128173907B8F481E0898314C0ED8101
:1028E000FE81208131818B819C818217930748F082
:1028F0002091AB063091AC068B819C81281739075B
:1029000010F481E08983ED81FE818B819C8191832C
:1029100080838981882359F08091A8069091A90627
:1029200002960E944D0B8B819C810E944E1B0E943F
:102930003E178A838A81882311F40E94550D2896B8
:102940000FB6F894DEBF0FBECDBFCF91DF910895D3
:10295000DF93CF9300D000D00F92CDB7DEB79D8329
:102960008C8319828C819D810097D1F00E9432174F
:102970002091AB063091AC068C819D81820F931F14
:102980009B838A838091A8069091A90602960E9453
:102990004D0B8A819B810E944E1B0E943E178983AA
:1029A0008981882311F40E94550D0F900F900F908C
:1029B0000F900F90CF91DF910895DF93CF93CDB714
:1029C000DEB729970FB6F894DEBF0FBECDBF9E834A
:1029D0008D836F8319828F81853010F084E08F831F
:1029E0000FB6F8940F922091A8063091A9068D8118
:1029F0009E818217930711F41E821D828D819E8114
:102A0000009739F48091A8069091A9069987888744
:102A100004C08D819E8199878887888599859C834C
:102A20008B83EB81FC8186898A839A818F819817B9
:102A300009F465C09F818A81891738F48D819E8150
:102A4000009749F081E0898306C08D819E810097BF
:102A500011F481E08983EB81FC818F81868B8F81EA
:102A6000282F30E085E090E0821B930BEB81FC8106
:102A700095878487EB81FC81428553858A81282F45
:102A800030E0C901880F991F880F991F880F991F7F
:102A9000820F931F8B54994F4817590759F58B8113
:102AA0009C8102960E944D0BEB81FC81968980915E
:102AB000AE06891728F4EB81FC8186898093AE06E7
:102AC000EB81FC818689282F30E0C901880F991F8E
:102AD000880F991F880F991F820F931FAC014B54C9
:102AE000594F8B819C819C012E5F3F4FCA01B901D8
:102AF0000E94950A8981813011F40E94550D0F9032
:102B00000FBE29960FB6F894DEBF0FBECDBFCF9192
:102B1000DF910895DF93CF9300D000D000D0CDB7E0
:102B2000DEB79C838B830FB6F8940F922091A80692
:102B30003091A9068B819C818217930711F41C8226
:102B40001B828B819C81009739F48091A80690911B
:102B5000A9069E838D8304C08B819C819E838D8377
:102B60008D819E819A83898389819A8102960E94B0
:102B70004D0BE981FA8184899589009729F0898133
:102B80009A810C960E944D0B89819A819C012E5F3F
:102B90003F4F81E097E0B9010E94950A0F900FBE68
:102BA0008B819C810097A1F48091AF06882319F056
:102BB0000E94550D0DC0909101078091AA069817AB
:102BC00029F41092A9061092A80602C00E94D018FB
:102BD00026960FB6F894DEBF0FBECDBFCF91DF9122
:102BE0000895DF93CF9300D000D00F92CDB7DEB71A
:102BF0009D838C831B828C819D819A838983E9814B
:102C0000FA818285938527E08130920781F4E981FA
:102C1000FA818489958926E0883F920741F0E9810D
:102C2000FA8184899589009711F481E08B838B81E7
:102C30000F900F900F900F900F90CF91DF9108950C
:102C4000DF93CF9300D000D0CDB7DEB79C838B83CA
:102C50008B819C819A83898389819A81009709F469
:102C60004CC02091A8063091A90689819A818217CB
:102C7000930709F442C00FB6F8940F9289819A81A4
:102C80000E94F1158130B9F589819A8102960E94DE
:102C90004D0BE981FA8196898091AE06891728F457
:102CA000E981FA8186898093AE06E981FA81868975
:102CB000282F30E0C901880F991F880F991F880FAE
:102CC000991F820F931FAC014B54594F89819A81F0
:102CD0009C012E5F3F4FCA01B9010E94950AE9810C
:102CE000FA819689E091A806F091A906868998173D
:102CF00010F00E94550D0F900FBE0F900F900F9087
:102D00000F90CF91DF910895DF93CF9300D000D043
:102D10000F92CDB7DEB79D838C831B828C819D8102
:102D20009A83898389819A810E94F115813009F003
:102D300047C08091B0068823C9F5E981FA81968958
:102D4000E091A806F091A90686891B82981710F0D9
:102D500081E08B8389819A8102960E944D0BE981E3
:102D6000FA8196898091AE06891728F4E981FA8163
:102D700086898093AE06E981FA818689282F30E022
:102D8000C901880F991F880F991F880F991F820FFB
:102D9000931FAC014B54594F89819A819C012E5F3E
:102DA0003F4FCA01B9010E94950A0AC089819A81E0
:102DB0009C01245F3F4F88EF96E0B9010E94950A7D
:102DC0008B810F900F900F900F900F90CF91DF910C
:102DD0000895AF92BF92CF92DF92EF92FF920F933E
:102DE000DF93CF930F92CDB7DEB720E630E087EACE
:102DF0009AE1B90145E550E020E030E000E0EE2442
:102E0000FF24CC24DD24AA24BB240E9447138983F9
:102E10008981813019F40E94001C89838981813065
:102E200051F4F89481E08093AF061092AC061092B2
:102E3000AB060E94190D0F90CF91DF910F91FF907B
:102E4000EF90DF90CF90BF90AF900895DF93CF9336
:102E5000CDB7DEB7F8941092AF060E944E0DCF9119
:102E6000DF910895DF93CF93CDB7DEB78091B006A1
:102E70008F5F8093B006CF91DF910895DF93CF935A
:102E800000D000D0CDB7DEB71A820FB6F8940F92FB
:102E90008091B00681508093B0068091B00688235F
:102EA00009F06AC08091AA06882309F465C01982D6
:102EB00041C0E091FD06F091FE06868197819C83DA
:102EC0008B838B819C810C960E944D0B8B819C8106
:102ED00002960E944D0BEB81FC8196898091AE0693
:102EE000891728F4EB81FC8186898093AE06EB81FB
:102EF000FC818689282F30E0C901880F991F880F2F
:102F0000991F880F991F820F931F8B54994F2B8104
:102F10003C812E5F3F4FB9010E94950AEB81FC81F5
:102F20009689E091A806F091A9068689981710F075
:102F300081E089838091F806882309F0BACF8091D7
:102F4000B106882361F007C00E94FB178091B1068B
:102F500081508093B1068091B1068823A9F78981B9
:102F6000813021F08091B206813031F481E08A8392
:102F70001092B2060E94550D0F900FBE8A810F90DD
:102F80000F900F900F90CF91DF910895DF93CF9323
:102F900000D0CDB7DEB70FB6F8940F928091AB0694
:102FA0009091AC069A8389830F900FBE89819A8194
:102FB0000F900F90CF91DF910895DF93CF9300D0C2
:102FC0000F92CDB7DEB719828091AB069091AC0617
:102FD0009B838A838A819B810F900F900F90CF9162
:102FE000DF910895DF93CF93CDB7DEB78091AA0626
:102FF000CF91DF910895DF93CF9300D000D000D020
:10300000CDB7DEB78091B006882309F0BBC08091B0
:10301000AB069091AC0601969093AC068093AB06FC
:103020008091AB069091AC060097D1F58091F406A3
:103030009091F5069C838B838091F6069091F7061C
:103040009093F5068093F4068B819C819093F7060C
:103050008093F6068091B3068F5F8093B306E0916C
:10306000F406F091F5068081882339F48FEF9FEF05
:103070009093A00180939F0113C0E091F406F0911A
:10308000F5060580F681E02D868197819E838D83EC
:10309000ED81FE81828193819093A00180939F01B5
:1030A0002091AB063091AC0680919F019091A001D8
:1030B0002817390708F46BC0E091F406F091F50683
:1030C0008081882339F48FEF9FEF9093A001809344
:1030D0009F015DC0E091F406F091F5060580F68150
:1030E000E02D868197819E838D83ED81FE81828193
:1030F00093819A8389832091AB063091AC068981B4
:103100009A812817390738F489819A819093A00110
:1031100080939F013CC08D819E8102960E944D0B41
:10312000ED81FE8184899589009729F08D819E81AA
:103130000C960E944D0BED81FE8196898091AE0622
:10314000891728F4ED81FE8186898093AE06ED8192
:10315000FE818689282F30E0C901880F991F880FCA
:10316000991F880F991F820F931FAC014B54594F21
:103170008D819E819C012E5F3F4FCA01B9010E9443
:10318000950A9ACF8091B1068F5F8093B1062696FB
:103190000FB6F894DEBF0FBECDBFCF91DF9108957B
:1031A000DF93CF9300D0CDB7DEB78091B0068823F0
:1031B00049F081E08093B20654C08091AE06815000
:1031C0008093AE068091AE06282F30E0C901880FAB
:1031D000991F880F991F880F991F820F931FFC0159
:1031E000EB54F94F8081882341F38091AE06282F5C
:1031F00030E0C901880F991F880F991F880F991F08
:10320000820F931F8B54994F9A838983E981FA81A6
:103210000180F281E02D82819381E981FA8192839C
:103220008183E981FA812181328189819A810396A2
:103230002817390759F4E981FA810180F281E02DDC
:1032400082819381E981FA8192838183E981FA8184
:103250000180F281E02D868197819093A906809369
:10326000A8060F900F90CF91DF910895DF93CF9331
:1032700000D000D000D0CDB7DEB79C838B837E8397
:103280006D834B815C818091A8069091A9069C0179
:10329000245F3F4FCA01B9010E94E10A8091A8064C
:1032A0009091A90602960E944D0B8D819E812FEF71
:1032B0008F3F920769F48091A8069091A9069C011E
:1032C0002E5F3F4F81E097E0B9010E94950A0EC042
:1032D0002091AB063091AC068D819E81820F931FA9
:1032E0009A83898389819A810E944E1B26960FB604
:1032F000F894DEBF0FBECDBFCF91DF910895DF936D
:10330000CF9300D000D000D0CDB7DEB79C838B83A5
:103310007E836D834B815C818091A8069091A90684
:103320009C01245F3F4FCA01B9010E94950A809118
:10333000A8069091A90602960E944D0B2091AB061B
:103340003091AC068D819E81820F931F9A83898371
:1033500089819A810E944E1B26960FB6F894DEBF93
:103360000FBECDBFCF91DF910895DF93CF9300D0F3
:1033700000D00F92CDB7DEB79D838C83EC81FD81A9
:103380000580F681E02D868197819B838A838A81DF
:103390009B810C960E944D0B8091B006882361F5AD
:1033A0008A819B8102960E944D0BEA81FB8196895E
:1033B0008091AE06891728F4EA81FB818689809383
:1033C000AE06EA81FB818689282F30E0C901880F8B
:1033D000991F880F991F880F991F820F931FAC01A7
:1033E0004B54594F8A819B819C012E5F3F4FCA01EC
:1033F000B9010E94950A0AC08A819B819C01245FC1
:103400003F4F88EF96E0B9010E94950AEA81FB815F
:103410009689E091A806F091A9068689981718F078
:1034200081E0898301C0198289810F900F900F90EC
:103430000F900F90CF91DF910895DF93CF9300D03D
:10344000CDB7DEB79A8389838091B306E981FA818B
:1034500080838091AB069091AC06E981FA819283DA
:1034600081830F900F90CF91DF910895DF93CF93D9
:1034700000D000D00F92CDB7DEB79B838A837D83C7
:103480006C830FB6F8940F92EC81FD81808191815D
:103490002FEF8F3F920711F4198244C0EA81FB811C
:1034A00090818091B306981771F0EA81FB812181A8
:1034B00032818091AB069091AC068217930718F089
:1034C00081E089832FC02091AB063091AC06EA8160
:1034D000FB8181819281281B390BEC81FD818081E8
:1034E000918128173907E0F4EC81FD8140815181F9
:1034F000EA81FB81218132818091AB069091AC06FB
:10350000B901681B790BCB01840F951FEC81FD81FC
:10351000918380838A819B810E941D1A198202C037
:1035200081E089830F900FBE89810F900F900F90DB
:103530000F900F90CF91DF910895DF93CF93CDB788
:10354000DEB781E08093B206CF91DF910895DF93DB
:10355000CF9300D0CDB7DEB79A8389830E94471BF3
:103560000E94550DFBCF0F931F93DF93CF93CDB7E1
:10357000DEB729970FB6F894DEBF0FBECDBF9A8392
:1035800089837C836B834D833F832E8319870887D0
:1035900089819A8149962B813C81B90148E050E0AC
:1035A0000E940435E981FA8110A28D81853010F0E6
:1035B00084E08D83E981FA818D81868B89819A816E
:1035C00002960E94850A89819A810C960E94850A3A
:1035D000E981FA8189819A81918780878D81282F5D
:1035E00030E085E090E0821B930BE981FA819587BA
:1035F0008487E981FA8189819A81938B828B2996CC
:103600000FB6F894DEBF0FBECDBFCF91DF911F91F3
:103610000F910895DF93CF930F92CDB7DEB7198244
:1036200013C08981282F30E0C901880F991F880FA6
:10363000991F880F991F820F931F8B54994F0E94D7
:103640005B0A89818F5F89838981853050F382EE9F
:1036500096E00E945B0A8BEE96E00E945B0A88EF80
:1036600096E00E945B0A81E097E00E945B0A82EE8E
:1036700096E09093F5068093F4068BEE96E0909397
:10368000F7068093F6060F90CF91DF910895DF93B0
:10369000CF93CDB7DEB7CF91DF910895DF93CF936E
:1036A00000D0CDB7DEB79A838983E091A806F09168
:1036B000A90689819A81938382832091AB063091F8
:1036C000AC0689819A818217930770F48091F6067F
:1036D0009091F7062091A8063091A9062E5F3F4FE2
:1036E000B9010E94E10A1EC04091F4065091F5060E
:1036F0008091A8069091A9069C012E5F3F4FCA01B8
:10370000B9010E94E10A20919F013091A0018981B5
:103710009A818217930730F489819A819093A0014E
:1037200080939F010F900F90CF91DF910895DF93C9
:10373000CF93CDB7DEB728970FB6F894DEBF0FBE94
:10374000CDBF9C838B837E836D8381E290E00E945A
:10375000EF099A83898389819A81009769F18D8124
:103760009E81009739F48B819C810E94EF09988794
:103770008F8304C08D819E8198878F83E981FA8130
:103780008F819885908F878BE981FA818789908DC9
:10379000009739F489819A810E94350A1A82198228
:1037A0000BC0E981FA818789908D2B813C8165EA84
:1037B00070E0A9010E94FD3489819A8128960FB694
:1037C000F894DEBF0FBECDBFCF91DF910895DF9398
:1037D000CF930F92CDB7DEB78091AF06882311F457
:1037E000198209C08091B006882319F481E0898389
:1037F00002C082E0898389810F90CF91DF91089583
:10380000AF92BF92CF92DF92EF92FF920F93DF932E
:10381000CF930F92CDB7DEB719820E94CB1F809154
:103820000A0790910B07009799F025E630E08CE4A9
:103830009DE1B90145E550E020E030E004E0EE24F0
:10384000FF24CC24DD24AA24BB240E9447138983AF
:1038500089810F90CF91DF910F91FF90EF90DF90D2
:10386000CF90BF90AF9008950F931F93DF93CF93A6
:10387000CDB7DEB72B970FB6F894DEBF0FBECDBF26
:103880009C838B837E836D834F83398728871B8737
:103890000A878D819E81009719F41A8219822DC0A2
:1038A00083E190E00E94EF099A83898389819A815C
:1038B000009719F10E94CB1FE981FA818B819C81CD
:1038C00091838083E981FA818D819E8195878487A8
:1038D000E981FA818F818687E981FA8188859985D6
:1038E000908B8787E981FA818A859B85928B818B72
:1038F00089819A8102960E94850A89819A812B96F4
:103900000FB6F894DEBF0FBECDBFCF91DF911F91F0
:103910000F9108950F931F93DF93CF93CDB7DEB729
:103920002F970FB6F894DEBF0FBECDBF98878F8359
:1039300069875B874A873D872C871F870E87198297
:1039400080910A0790910B07009709F43EC0898582
:103950008A838A859B859C838B838F8198859E83B0
:103960008D838C859D85009711F50E94E71B813022
:1039700079F480910A0790910B079E012E5F3F4FCB
:103980004E855F85B90120E00E94380F89831DC0F4
:1039900080910A0790910B079E012E5F3F4FB9015E
:1039A00040E050E020E00E94380F89830EC08091F3
:1039B0000A0790910B074C855D859E012E5F3F4F56
:1039C000B90120E00E94D60F898389812F960FB616
:1039D000F894DEBF0FBECDBFCF91DF911F910F9145
:1039E00008950F931F93DF93CF93CDB7DEB727973B
:1039F0000FB6F894DEBF0FBECDBF9D838C837F834F
:103A00006E83E0912007F09121070580F681E02D7B
:103A1000868197819B838A838A819B8102960E94FB
:103A20004D0BEA81FB818685813019F5EA81FB81A6
:103A3000248535858C819D81A901480F591F8A8174
:103A40009B812E813F81EC81FD81BA01A9019F01FB
:103A50000E94131E813069F48A819B812C813D81F3
:103A600060E0A90120E030E000E010E00E948A1C44
:103A70008983EA81FB810188F289E02D8A819B811B
:103A8000099527960FB6F894DEBF0FBECDBFCF9134
:103A9000DF911F910F910895DF93CF9300D000D055
:103AA0000F92CDB7DEB79D838C83CE0103960E9423
:103AB000AD1D9A8389832B8189819A81622F0E940F
:103AC000641D0E947B1EF1CFDF93CF9300D000D006
:103AD00000D0CDB7DEB79D838C836E830E943217F2
:103AE000CE0103960E94E11D9A8389838B818823EE
:103AF00049F58E81882389F42C813D8189819A81C1
:103B00008217930750F00E943E178C819D81298176
:103B10003A81B9010E94F11C17C040910A075091E7
:103B20000B072C813D8189819A81281B390BCA01A1
:103B3000B9010E9410130E943E17882329F40E94A5
:103B4000550D02C00E943E1726960FB6F894DEBFB0
:103B50000FBECDBFCF91DF910895DF93CF9300D0FB
:103B600000D00F92CDB7DEB79C838B83E091200706
:103B7000F091210780811D82882311F481E08D83DB
:103B8000EB81FC818D818083EB81FC8180818823A6
:103B900061F4E0912007F09121070580F681E02D86
:103BA000808191819A83898302C01A8219828981D6
:103BB0009A810F900F900F900F900F90CF91DF91FF
:103BC0000895DF93CF9300D000D0CDB7DEB79C83AC
:103BD0008B830E94C6179A83898320910C073091AA
:103BE0000D0789819A818217930758F480910C07F9
:103BF00090910D070E94351FEB81FC8181E080834D
:103C000003C0EB81FC81108289819A8190930D071A
:103C100080930C0789819A810F900F900F900F90DD
:103C2000CF91DF910895DF93CF93CDB7DEB729977A
:103C30000FB6F894DEBF0FBECDBF9B838A837D8312
:103C40006C835F834E83398728871982EA81FB81E1
:103C50008C819D8193838283EA81FB818A819B8110
:103C6000918780872C813D818E819F818217930768
:103C7000E0F02E813F8188859985281B390BEA81E8
:103C8000FB81848595852817390718F081E08983A1
:103C900028C080912207909123072A813B812E5FC3
:103CA0003F4FB9010E94E10A1CC02E813F818885E7
:103CB00099852817390750F42C813D81888599858D
:103CC0002817390718F081E089830BC080912007FD
:103CD000909121072A813B812E5F3F4FB9010E94BD
:103CE000E10A898129960FB6F894DEBF0FBECDBFD9
:103CF000CF91DF9108950F931F93DF93CF93CDB7AB
:103D0000DEB72D970FB6F894DEBF0FBECDBFCE0144
:103D10000B960E94E11D9A8389838CC089859A85C0
:103D20009D838C838C819D81009759F0EC81FD816E
:103D300082859385009729F08C819D8102960E944F
:103D40004D0B8E81282F30E03D872C878C859D85FB
:103D50008130910509F46EC02C853D8522303105F6
:103D60002CF48C859D85009771F064C02C853D8571
:103D70002230310509F43FC08C859D858330910543
:103D800009F454C057C02F813885EC81FD818485AA
:103D90009585A901480F591FEF81F8858C819D8178
:103DA00029813A81BA01A9019F010E94131E813025
:103DB00009F040C0EC81FD810188F289E02D8C8101
:103DC0009D810995EC81FD818685813099F52F8152
:103DD0003885EC81FD8184859585280F391F8C817C
:103DE0009D8160E0A90120E030E000E010E00E9449
:103DF0008A1C8B831FC08F819885EC81FD819587FC
:103E00008487EC81FD812485358589819A81A9018A
:103E1000480F591F8C819D8129813A81E981FA815E
:103E2000BA01A9019F010E94131E04C08C819D81CB
:103E30000E94350A80910A0790910B079E012A5F24
:103E40003F4FB90140E050E020E00E94231088235A
:103E500009F064CF2D960FB6F894DEBF0FBECDBF2C
:103E6000CF91DF911F910F9108950F931F93DF93CF
:103E7000CF93CDB7DEB72B970FB6F894DEBF0FBE4A
:103E8000CDBF9B878A8760C0E0912007F091210712
:103E90000580F681E02D8081918199878887E09166
:103EA0002007F09121070580F681E02D868197811A
:103EB0009B838A838A819B8102960E944D0BEA81B3
:103EC000FB810188F289E02D8A819B810995EA8135
:103ED000FB8186858130C1F5EA81FB8124853585AA
:103EE00088859985820F931F9F838E832E813F81C2
:103EF0008885998582179307D0F4EA81FB818E81AA
:103F00009F8193838283EA81FB818A819B81918750
:103F1000808740912007509121078A819B819C01D5
:103F20002E5F3F4FCA01B9010E94E10A0DC08A818C
:103F30009B812885398560E0A90120E030E000E020
:103F400010E00E948A1C8983E0912007F0912107EC
:103F50008081882309F098CF8091200790912107D4
:103F60009D838C8380912207909123079093210752
:103F7000809320078C819D81909323078093220753
:103F80002B960FB6F894DEBF0FBECDBFCF91DF9159
:103F90001F910F910895DF93CF93CDB7DEB70FB682
:103FA000F8940F9280910A0790910B070097E1F423
:103FB0008EE097E00E945B0A87E197E00E945B0A2F
:103FC0008EE097E0909321078093200787E197E0A8
:103FD00090932307809322078AE065E00E948F0E6A
:103FE00090930B0780930A070F900FBECF91DF913C
:103FF0000895DF93CF9300D000D00F92CDB7DEB7F6
:104000009D838C838C819D819A8389830FB6F894DC
:104010000F92E981FA81828593851B82009711F0C6
:1040200081E08B830F900FBE8B810F900F900F90CC
:104030000F900F90CF91DF910895DF93CF9300D031
:1040400000D0CDB7DEB79C838B838B819C819A8314
:104050008983E981FA81878590890F900F900F906D
:104060000F90CF91DF9108950F931F93DF93CF931C
:10407000CDB7DEB781E00E94272C813009F04CC01B
:1040800080913007909131070097D9F48AEF90E042
:104090000E94A81481E090E090933107809330074C
:1040A00000912E0710912F070E94C6179C01C8018E
:1040B00060E0A90120E030E000E010E00E948A1CEE
:1040C0002BC080913007909131078130910521F507
:1040D0008AEF90E00E94A8148091A1019091A20122
:1040E0008B3091054CF08091A1019091A201019734
:1040F0009093A2018093A10100912E0710912F07A8
:104100000E94C6179C01C80160E0A90120E030E0D0
:1041100000E010E00E948A1C84E690E00E94A8144F
:10412000A9CF0F931F93DF93CF93CDB7DEB780E076
:104130000E94272C813009F04CC08091300790916B
:1041400031070097D9F48AEF90E00E94A81481E02B
:1041500090E0909331078093300700912E071091E3
:104160002F070E94C6179C01C80160E0A90120E04A
:1041700030E000E010E00E948A1C2BC080913007E4
:10418000909131078130910521F58AEF90E00E94EE
:10419000A8148091A1019091A201883291054CF45C
:1041A0008091A1019091A20101969093A201809328
:1041B000A10100912E0710912F070E94C6179C01A4
:1041C000C80160E0A90120E030E000E010E00E94BA
:1041D0008A1C84E690E00E94A814A9CFDF93CF93B5
:1041E000CDB7DEB7809130079091310781309105CE
:1041F00079F48091A1019091A20168EE73E00E9490
:1042000027230E94162388EE93E00E94A814EACF89
:104210008091300790913107009721F78091320704
:10422000909133070E94D222DDCFDF93CF93CDB799
:10423000DEB78091A1019091A2019C0121503040F4
:104240008091320790913307281739075CF00E945C
:10425000D62B80E00E941B2482E00E944C240E9406
:10426000B22B23C08091A1019091A2019C012F5FEC
:104270003F4F8091320790913307821793075CF08C
:104280000E94CA2B82E00E941B2480E00E944C24E2
:104290000E94BE2B0AC00E94D62B0E94BE2B82E039
:1042A0000E944C2480E00E944C2488EE93E00E94FF
:1042B000A814BFCF0F931F93DF93CF93CDB7DEB773
:1042C0002D970FB6F894DEBF0FBECDBF8AE0FE017A
:1042D0003496DF01982F1D929A95E9F71B821A8276
:1042E00019822CC08981082F10E00E94B623DC01BE
:1042F000CB01BC01CD010E944900DC01CB01282F7C
:10430000CE010496FC01E00FF11F20838981282F44
:1043100030E0CE010496FC01E20FF31F8081282FCC
:1043200030E08A819B81820F931F9B838A8384E67E
:1043300090E00E94A81489818F5F898389818A30E7
:1043400088F28A819B812AE030E0B9010E9487349B
:10435000CB01059790933307809332071B821A8213
:10436000BDCFDF93CF9300D0CDB7DEB79A838983DB
:1043700010923107109230070F900F90CF91DF917C
:104380000895AF92BF92CF92DF92EF92FF920F9378
:104390001F93DF93CF93CDB7DEB70E949A2B0E9475
:1043A000A62B0E94AD220E9405240E94112C0E947F
:1043B000083483E060E041E00E94D53083E060E0B3
:1043C00041E00E94D53082E067E040E00E94B831D1
:1043D00024E330E24DE650E08091240790912507D8
:1043E000FC01C901BA0145E550E020E030E002E0FF
:1043F0007F01CC24DD24AA24BB240E9447139927E3
:1044000087FD9095909325078093240721E930E25A
:1044100043E750E08091260790912707FC01C901EE
:10442000BA0145E550E020E030E002E07F01CC2415
:10443000DD24AA24BB240E944713992787FD909569
:1044400090932707809326072EEE30E249E750E04D
:104450008091280790912907FC01C901BA0145E51F
:1044600050E020E030E004E07F01CC24DD24AA24E9
:10447000BB240E944713992787FD909590932907A5
:104480008093280725E131E24FE750E080912A0729
:1044900090912B07FC01C901BA0145E550E020E0ED
:1044A00030E001E07F01CC24DD24AA24BB240E945B
:1044B0004713992787FD909590932B0780932A07A0
:1044C0002AE531E245E850E080912C0790912D07D4
:1044D000FC01C901BA0145E550E020E030E005E00B
:1044E0007F01CC24DD24AA24BB240E9447139927F2
:1044F00087FD909590932D0780932C078BE890E093
:10450000E1EBF1E268E873E140E021E030E08F01A7
:104510000E94341C90932F0780932E0700912E0742
:1045200010912F070E94C6179C01C80160E0A901E5
:1045300020E030E000E010E00E948A1C0E94E916B2
:1045400080E090E0CF91DF911F910F91FF90EF906D
:10455000DF90CF90BF90AF900895DF93CF93CDB70A
:10456000DEB781E061E041E00E94D53081E062E0A9
:1045700041E00E94D53080E064E041E00E94D53007
:1045800080E065E041E00E94D53080E066E041E0F7
:104590000E94D53080E067E041E00E94D530CF91A5
:1045A000DF910895DF93CF9300D00F92CDB7DEB7A0
:1045B0008B838B819AE0692F0E947B348295807F68
:1045C0008A838B819AE0692F0E947B34892F8295A0
:1045D000807F898381E061E041E00E94B83181E021
:1045E00062E040E00E94B83180E069814FE00E94C3
:1045F000AC338AE090E00E94A81481E062E041E0E0
:104600000E94B83181E061E040E00E94B83180E072
:104610006A814FE00E94AC338AE090E00E94A814C7
:104620000F900F900F90CF91DF910895DF93CF936C
:10463000CDB7DEB781E062E040E00E94B83181E0B2
:1046400061E040E00E94B831CF91DF910895DF939F
:10465000CF93CDB7DEB727970FB6F894DEBF0FBE66
:10466000CDBF8D837F836E838E819F81CC01A0E03F
:10467000B0E0BC01CD010E94A904DC01CB01BC016A
:10468000CD0129E334EB48E45DE30E941F02DC0125
:10469000CB01BC01CD010E944900DC01CB019A8312
:1046A00089831C821B8208C08D810E94D2228B814B
:1046B0009C8101969C838B832B813C8189819A818B
:1046C0002817390788F327960FB6F894DEBF0FBE78
:1046D000CDBFCF91DF910895DF93CF93CDB7DEB7F4
:1046E00080E062E041E00E94D530CF91DF910895F3
:1046F000DF93CF93CDB7DEB780E062E041E00E9468
:10470000B831CF91DF910895DF93CF93CDB7DEB766
:1047100080E062E040E00E94B831CF91DF910895DF
:10472000DF93CF93CDB7DEB780E061E040E00E9439
:10473000D53080E061E00E949B32813019F40E9404
:10474000782308C080E061E00E949B32882311F446
:104750000E948423CF91DF910895DF93CF93CDB74B
:10476000DEB70E940834CF91DF910895DF93CF9395
:10477000CDB7DEB728970FB6F894DEBF0FBECDBF1A
:1047800081E00E941A34CC01A0E0B0E0BC01CD0170
:104790000E94A904DC01CB018D839E83AF83B8877F
:1047A0006D817E818F8198850E944900DC01CB015B
:1047B00024EF31E040E050E0BC01CD010E945C34C8
:1047C000DC01CB012FEF33E040E050E0BC01CD0134
:1047D0000E949B34DA01C901BC01CD010E94A904E9
:1047E000DC01CB0189839A83AB83BC8389819A8165
:1047F000AB81BC81BC01CD0128960FB6F894DEBF19
:104800000FBECDBFCF91DF910895DF93CF93CDB78A
:10481000DEB782E067E041E00E94D53082E062E0EE
:1048200041E00E94D53083E063E041E00E94D53052
:10483000CF91DF910895DF93CF9300D00F92CDB742
:10484000DEB789838981282F30E03B832A838A81E0
:104850009B818130910579F02A813B81223031059D
:1048600081F08A819B81009789F482E062E041E0D7
:104870000E94B8310BC082E067E041E00E94B8318D
:1048800005C083E063E041E00E94B8310F900F90D3
:104890000F90CF91DF910895DF93CF9300D00F92C7
:1048A000CDB7DEB789838981282F30E03B832A8307
:1048B0008A819B818130910579F02A813B81223068
:1048C000310581F08A819B81009789F482E062E062
:1048D00040E00E94B8310BC082E067E040E00E94F7
:1048E000B83105C083E063E040E00E94B8310F902A
:1048F0000F900F90CF91DF910895DF93CF9300D069
:104900000F92CDB7DEB789838981282F30E03B83B2
:104910002A838A819B818130910571F02A813B81B4
:104920002230310571F08A819B81009771F482E019
:1049300062E00E942F3309C082E067E00E942F33BB
:1049400004C083E063E00E942F330F900F900F901C
:10495000CF91DF910895DF93CF93CDB7DEB7A697C0
:104960000FB6F894DEBF0FBECDBF81E063E041E03B
:104970000E94B83180E090E0A0E8BFE38BA39CA345
:10498000ADA3BEA36BA17CA18DA19EA12BEA3AEAA7
:104990004AEA50E40E941F02DC01CB018F8F98A3EA
:1049A000A9A3BAA36F8D78A189A19AA120E030E0D4
:1049B00040E85FE30E94250488231CF481E08E8F89
:1049C00091C06F8D78A189A19AA120E030E04FE7D6
:1049D00053E40E94C50318160CF07BC06BA17CA1A8
:1049E0008DA19EA120E030E04AE754E40E94190323
:1049F000DC01CB018A8F9B8FAC8FBD8F6A8D7B8D45
:104A00008C8D9D8D20E030E04AE755E40E941F0226
:104A1000DC01CB018E8B9F8BA88FB98F6E897F892C
:104A2000888D998D20E030E040E85FE30E94250406
:104A300088232CF481E090E09D8B8C8B3FC06E89A5
:104A40007F89888D998D20E03FEF4FE757E40E94E2
:104A5000C50318164CF56A8D7B8D8C8D9D8D20E0DD
:104A600030E040E251E40E941F02DC01CB01BC01B6
:104A7000CD010E944900DC01CB019D8B8C8B0FC0C6
:104A800080E991E09B8B8A8B8A899B890197F1F75A
:104A90009B8B8A8B8C899D8901979D8B8C8B8C89B4
:104AA0009D89009769F724C06E897F89888D998DCB
:104AB0000E944900DC01CB019D8B8C8B8C899D89E8
:104AC000998B888B888999890197F1F7998B888BC5
:104AD0000FC06F8D78A189A19AA10E944900DC01C5
:104AE000CB018E8F8E8D8F878F858A95F1F78F877B
:104AF00081E063E040E00E94B83180E090E0A0E017
:104B0000B0E48B879C87AD87BE876B857C858D8560
:104B10009E8520E030E04AE755E40E941F02DC0158
:104B2000CB018F839887A987BA876F81788589851C
:104B30009A8520E030E040E85FE30E942504882366
:104B40002CF481E090E09E838D833FC06F81788557
:104B500089859A8520E03FEF4FE757E40E94C5031F
:104B600018164CF56B857C858D859E8520E030E0A0
:104B700040E251E40E941F02DC01CB01BC01CD01E7
:104B80000E944900DC01CB019E838D830FC080E928
:104B900091E09C838B838B819C810197F1F79C83AF
:104BA0008B838D819E8101979E838D838D819E81D4
:104BB000009769F714C06F81788589859A850E946E
:104BC0004900DC01CB019E838D838D819E819A8378
:104BD000898389819A810197F1F79A838983A696BF
:104BE0000FB6F894DEBF0FBECDBFCF91DF91089511
:104BF000DF93CF93CDB7DEB7C254D0400FB6F89451
:104C0000DEBF0FBECDBF81E061E041E00E94D53044
:104C100081E062E041E00E94D53081E063E041E064
:104C20000E94D53080E064E041E00E94D53080E011
:104C300065E041E00E94D53080E066E041E00E94FE
:104C4000D53080E067E041E00E94D53081E062E04D
:104C500040E00E94B83180E090E0A0E7B1E489AB89
:104C60009AABABABBCAB69A97AA98BA99CA920E094
:104C700030E04AE755E40E941F02DC01CB018DA71A
:104C80009EA7AFA7B8AB6DA57EA58FA598A920E07C
:104C900030E040E85FE30E94250488232CF481E0A3
:104CA00090E09CA78BA73FC06DA57EA58FA598A976
:104CB00020E03FEF4FE757E40E94C50318164CF57C
:104CC00069A97AA98BA99CA920E030E040E251E4CF
:104CD0000E941F02DC01CB01BC01CD010E944900F2
:104CE000DC01CB019CA78BA70FC080E991E09AA7BC
:104CF00089A789A59AA50197F1F79AA789A78BA5F6
:104D00009CA501979CA78BA78BA59CA5009769F7ED
:104D100014C06DA57EA58FA598A90E944900DC014D
:104D2000CB019CA78BA78BA59CA598A78FA38FA130
:104D300098A50197F1F798A78FA383E00E947428A4
:104D400080E090E0A0EAB0E48BA39CA3ADA3BEA357
:104D50006BA17CA18DA19EA120E030E04AE755E443
:104D60000E941F02DC01CB018F8F98A3A9A3BAA3D5
:104D70006F8D78A189A19AA120E030E040E85FE33F
:104D80000E94250488232CF481E090E09E8F8D8F73
:104D90003FC06F8D78A189A19AA120E03FEF4FE736
:104DA00057E40E94C50318164CF56BA17CA18DA198
:104DB0009EA120E030E040E251E40E941F02DC01AD
:104DC000CB01BC01CD010E944900DC01CB019E8FCB
:104DD0008D8F0FC080E991E09C8F8B8F8B8D9C8D88
:104DE0000197F1F79C8F8B8F8D8D9E8D01979E8FF4
:104DF0008D8F8D8D9E8D009769F714C06F8D78A172
:104E000089A19AA10E944900DC01CB019E8F8D8F60
:104E10008D8D9E8D9A8F898F898D9A8D0197F1F74F
:104E20009A8F898F83E00E94742880E090E0A8EC3C
:104E3000B2E48D8B9E8BAF8BB88F6D897E898F8905
:104E4000988D2BEA3AEA4AEA50E40E941F02DC01FC
:104E5000CB01898B9A8BAB8BBC8B69897A898B89C7
:104E60009C8920E030E040E85FE30E94250488232D
:104E70001CF481E0888B91C069897A898B899C892F
:104E800020E030E04FE753E40E94C50318160CF011
:104E90007BC06D897E898F89988D20E030E04AE75C
:104EA00054E40E941903DC01CB018C879D87AE87F7
:104EB000BF876C857D858E859F8520E030E04AE741
:104EC00055E40E941F02DC01CB0188879987AA87DD
:104ED000BB87688579858A859B8520E030E040E83E
:104EE0005FE30E94250488232CF481E090E09F83F7
:104EF0008E833FC0688579858A859B8520E03FEF5A
:104F00004FE757E40E94C50318164CF56C857D8564
:104F10008E859F8520E030E040E251E40E941F0230
:104F2000DC01CB01BC01CD010E944900DC01CB01B9
:104F30009F838E830FC080E991E09D838C838C8159
:104F40009D810197F1F79D838C838E819F810197CD
:104F50009F838E838E819F81009769F724C0688527
:104F600079858A859B850E944900DC01CB019F835E
:104F70008E838E819F819B838A838A819B81019707
:104F8000F1F79B838A830FC069897A898B899C8911
:104F90000E944900DC01CB01888B88898983898143
:104FA0008A95F1F7898383E00E94742882E00E9449
:104FB000742888E20E947428CE01C6969FAF8EAFF7
:104FC000E3EBF1E02296FFAFEEAF2297F8E02396F5
:104FD000FFAF23972296EEADFFAD22970080229679
:104FE0008EAD9FAD2297019622969FAF8EAF2297EE
:104FF000EEADFFAD00828EAD9FAD01969FAF8EAF3F
:1050000023969FAD2397915023969FAF2397239686
:10501000EFAD2397EE23F1F61DAA12C08DA9805C97
:105020000E9474288DA9282F30E0CE01C696FC017D
:10503000E20FF31F80810E9431288DA98F5F8DAB15
:105040008DA9883058F380E060E00E949B28CE5BF9
:10505000DF4F0FB6F894DEBF0FBECDBFCF91DF910B
:105060000895DF93CF9300D00F92CDB7DEB78B8337
:105070008B81807F8A838B818295807F898381E089
:1050800061E041E00E94B83180E06A814FE00E9417
:10509000AC330E94AB2480E069814FE00E94AC33C6
:1050A0000E94AB240F900F900F90CF91DF91089545
:1050B000DF93CF9300D0CDB7DEB79A8389830AC040
:1050C000E981FA8180810E94312889819A81019643
:1050D0009A838983E981FA818081882389F70F90F7
:1050E0000F90CF91DF910895DF93CF9300D00F926F
:1050F000CDB7DEB78B838B81807F8A838B8182954E
:10510000807F898381E061E040E00E94B83180E0E7
:105110006A814FE00E94AC330E94AB2480E0698139
:105120004FE00E94AC330E94AB240F900F900F9081
:10513000CF91DF910895DF93CF9300D000D0CDB70A
:10514000DEB789836A838981282F30E03C832B83F3
:105150008B819C81009731F02B813C81213031057E
:1051600031F009C08A8180580E94742804C08A8165
:1051700080540E9474280F900F900F900F90CF9141
:10518000DF910895DF93CF93CDB7DEB72E970FB69B
:10519000F894DEBF0FBECDBF6B877C878D879E875F
:1051A0008DB79EB708970FB6F8949EBF0FBE8DBF00
:1051B000EDB7FEB73196CE0101969183808381E9E8
:1051C00090E0938382838B859C85AD85BE858483A7
:1051D0009583A683B7830E9413358DB79EB7089633
:1051E0000FB6F8949EBF0FBE8DBFCE0101960E94F0
:1051F00058282E960FB6F894DEBF0FBECDBFCF91C4
:10520000DF910895DF93CF93CDB7DEB7AC970FB69C
:10521000F894DEBF0FBECDBF69A77AA78BA79CA766
:10522000CE0101962DB73EB7285030400FB6F89406
:105230003EBF0FBE2DBFEDB7FEB731969183808381
:1052400084E990E09383828389A59AA5ABA5BCA548
:1052500084839583A683B7830E9413358DB79EB749
:1052600008960FB6F8949EBF0FBE8DBFCE01019673
:105270000E945828AC960FB6F894DEBF0FBECDBF83
:10528000CF91DF910895DF93CF93CDB7DEB783E061
:1052900066E040E00E94D53083E063E040E00E9499
:1052A000D53082E062E040E00E94D53082E063E0E9
:1052B00040E00E94D53082E064E041E00E94D530B9
:1052C00082E065E041E00E94D53082E066E041E0A6
:1052D0000E94D53082E067E041E00E94D53082E054
:1052E00064E041E00E94B83182E065E041E00E9464
:1052F000B83182E066E041E00E94B83182E067E0C8
:1053000041E00E94B831CF91DF910895DF93CF93B0
:105310000F92CDB7DEB784E0898383E066E00E9418
:105320009B32813011F419821AC083E063E00E943D
:105330009B32813019F481E0898311C082E062E000
:105340000E949B32813019F482E0898308C082E098
:1053500063E00E949B32813011F483E0898389816C
:105360000F90CF91DF910895DF93CF9300D0CDB709
:10537000DEB7898382E064E041E00E94B83182E0D8
:1053800065E040E00E94B83182E066E040E00E94C3
:10539000B83182E067E040E00E94B8310E9486297F
:1053A000982F8981981711F41A8259C082E064E01D
:1053B00040E00E94B83182E065E041E00E94B831EF
:1053C00082E066E040E00E94B83182E067E040E0C1
:1053D0000E94B8310E948629982F8981981719F464
:1053E00081E08A833CC082E064E040E00E94B83102
:1053F00082E065E040E00E94B83182E066E041E092
:105400000E94B83182E067E040E00E94B8310E941B
:105410008629982F8981981719F482E08A831FC002
:1054200082E064E040E00E94B83182E065E040E064
:105430000E94B83182E066E040E00E94B83182E02C
:1054400067E041E00E94B8310E948629982F898147
:10545000981719F483E08A8302C084E08A838A81E2
:105460000F900F90CF91DF910895DF93CF930F921C
:10547000CDB7DEB783E066E00E949B32813091F0C9
:1054800083E063E00E949B32813061F082E062E061
:105490000E949B32813031F082E063E00E949B32B7
:1054A000813019F481E0898301C0198289810F90CC
:1054B000CF91DF910895DF93CF9300D00F92CDB7B6
:1054C000DEB784E08B8384E08A838FEF89830E9438
:1054D00043290E94352A8130C9F40E9486298B8392
:1054E0008B810E94B4298A838B81482F50E08A8166
:1054F000282F30E0CA01880F991F880F991F820F4B
:10550000931FFC01ED55FE4F8081898389810F90A7
:105510000F900F90CF91DF910895DF93CF93CDB788
:10552000DEB7E0E2F0E08CE08083A6E5B0E0E6E5FF
:10553000F0E0808184608C93CF91DF910895DF93B8
:10554000CF93CDB7DEB7A6E5B0E0E6E5F0E0808129
:1055500080628C93A6E5B0E0E6E5F0E080818068AB
:105560008C93E6E5F0E080818823DCF7E1E2F0E06F
:105570008081882F90E0887F907088309105B1F706
:10558000CF91DF910895DF93CF93CDB7DEB7A6E536
:10559000B0E0E6E5F0E0808180618C93A6E5B0E0C4
:1055A000E6E5F0E0808180688C93CF91DF910895EB
:1055B000DF93CF93CDB7DEB7A6E5B0E0E6E5F0E048
:1055C000808180628C93A6E5B0E0E6E5F0E0808122
:1055D00080688C93E6E5F0E080818823DCF7E1E2E7
:1055E000F0E08081882F90E0887F90708031910575
:1055F000B1F7CF91DF910895DF93CF930F92CDB79D
:10560000DEB78983E3E2F0E08981880F8083A6E535
:10561000B0E0E6E5F0E0808180688C93E6E5F0E0BC
:1056200080818823DCF70F90CF91DF910895DF937D
:10563000CF930F92CDB7DEB78983E3E2F0E08981A3
:10564000882F90E0880F991F81608083A6E5B0E0E5
:10565000E6E5F0E0808180688C93E6E5F0E080810B
:105660008823DCF70F90CF91DF910895DF93CF93DC
:105670000F92CDB7DEB78983E3E2F0E089818083C2
:10568000A6E5B0E0E6E5F0E080818F7D8C93A6E5AD
:10569000B0E0E6E5F0E0808180688C93E6E5F0E03C
:1056A00080818823DCF7E1E2F0E08081882F90E0C0
:1056B000887F907088329105B1F70F90CF91DF917C
:1056C0000895DF93CF930F92CDB7DEB7E3E2F0E01A
:1056D00080818983A6E5B0E0E6E5F0E080818F7DFA
:1056E0008C93A6E5B0E0E6E5F0E0808180648C93E1
:1056F000A6E5B0E0E6E5F0E080818F7E8C93A6E53C
:10570000B0E0E6E5F0E0808180688C93E6E5F0E0CB
:1057100080818823DCF7E1E2F0E08081882F90E04F
:10572000887F907080359105B1F789810F90CF9176
:10573000DF910895DF93CF93CDB7DEB783E061E0CB
:1057400041E00E94D530CF91DF910895DF93CF9350
:10575000CDB7DEB783E061E041E00E94D530CF9164
:10576000DF910895DF93CF93CDB7DEB783E060E09C
:1057700041E00E94B831CF91DF910895DF93CF933C
:10578000CDB7DEB783E060E040E00E94B831CF9152
:10579000DF910895DF93CF93CDB7DEB783E061E06B
:1057A00041E00E94B831CF91DF910895DF93CF930C
:1057B000CDB7DEB783E061E040E00E94B831CF9121
:1057C000DF910895DF93CF93CDB7DEB780E063E03C
:1057D00041E00E94D530CF91DF910895DF93CF93C0
:1057E000CDB7DEB780E063E041E00E94B831CF91F1
:1057F000DF910895DF93CF93CDB7DEB780E063E00C
:1058000040E00E94B831CF91DF910895DF93CF93AC
:10581000CDB7DEB780E063E00E942F33CF91DF91F8
:105820000895DF93CF93CDB7DEB781E060E040E02D
:105830000E94D53083E066E040E00E94D53083E0EE
:1058400062E040E00E94D530CF91DF910895DF9370
:10585000CF9300D000D0CDB7DEB789838981282FC0
:1058600030E03C832B838B819C8181309105A1F0BA
:105870002B813C8122303105D1F08B819C810097B6
:1058800009F581E060E00E949B32813019F491E0DB
:105890009A8319C01A8217C083E066E00E949B3287
:1058A000813019F421E02A830EC01A820CC083E0F3
:1058B00062E00E949B32813019F431E03A8303C0E8
:1058C0001A8201C01A828A810F900F900F900F9058
:1058D000CF91DF910895DF93CF93CDB7DEB72897AF
:1058E0000FB6F894DEBF0FBECDBF6D837E838F836E
:1058F00098878D819E81AF81B885880F991FAA1FD7
:10590000BB1F880F991FAA1FBB1F880F991FAA1FB3
:10591000BB1F880F991FAA1FBB1F9C01AD0180E010
:1059200094E2A4EFB0E0BC01CD010E949B34DA0107
:10593000C9010197A109B10989839A83AB83BC830B
:10594000E0E4F0E089819A81AB81BC81892F9A2FB4
:10595000AB2FBB278083E9E2F0E089818083EAE214
:10596000F0E088E18083E0E4F0E08EE88083289630
:105970000FB6F894DEBF0FBECDBFCF91DF91089573
:10598000DF93CF930F92CDB7DEB78983EBE2F0E0E0
:105990008081829586958770882F90E081709070C5
:1059A0000097A1F3ECE2F0E0898180830F90CF9122
:1059B000DF910895DF93CF9300D0CDB7DEB79A8300
:1059C00089830AC0E981FA8180810E94C02C898183
:1059D0009A8101969A838983E981FA81808188235B
:1059E00089F70F900F90CF91DF910895DF93CF93B8
:1059F000CDB7DEB7EBE2F0E080818823DCF7ECE2A4
:105A0000F0E08081CF91DF910895DF93CF930F92E3
:105A1000CDB7DEB7EBE2F0E08081881F8827881FD2
:105A2000813029F4ECE2F0E08081898301C01982A1
:105A300089810F90CF91DF910895DF93CF93CDB7F8
:105A4000DEB7AAE2B0E0EAE2F0E0808180688C9301
:105A5000CF91DF910895DF93CF93CDB7DEB781E08B
:105A600065E041E00E94D53081E064E041E00E94C1
:105A7000D53081E067E041E00E94D53081E066E00A
:105A800040E00E94D53081E064E041E00E94B831FE
:105A9000ADE2B0E0EDE2F0E0808180648C93ADE2B5
:105AA000B0E0EDE2F0E0808180618C93ADE2B0E0A7
:105AB000EDE2F0E0808181608C93CF91DF910895D9
:105AC000DF93CF93CDB7DEB781E065E040E00E9481
:105AD000D53081E064E040E00E94D53081E067E0AD
